:100000000C94A4000C94CC000C94CC000C94CC0068
:100010000C94CC000C94CC000C94CC000C94CC0030
:100020000C94CC000C94CC000C94CC000C94CC0020
:100030000C94CC000C94CC000C94CC000C94CC0010
:100040000C948B070C94CC000C94B60A0C94E80A20
:100050000C94CC000C94CC000C94CC000C94CC00F0
:100060000C9433030C94CC007E306D79335B5F705D
:100070007F7B771F0D3D4F47000000000000000010
:100080000000000000000000000000000000000070
:1000900000000000800180007E306D79335B5F706E
:1000A0007F7B00000000000000771F0D3D4F4700E0
:1000B000370000000E000000670000000000000094
:1000C000000000000000000800771F0D3D4F4700B2
:1000D000370000000E00151D670000000000000042
:1000E0000000000000000000000000080002010005
:1000F00000030407000000000000000001020408E3
:100100001020408001020408102001020408102081
:1001100004040404040404040202020202020303AD
:100120000303030300000000230026002900000051
:100130000000250028002B000000000024002700FC
:100140002A00D201DA02180B11241FBECFEFD8E02B
:10015000DEBFCDBF11E0A0E0B1E0E4EFFFE102C0FF
:1001600005900D92A234B107D9F723E0A2E4B1E0E3
:1001700001C01D92A731B207E1F711E0C8E4D1E058
:1001800004C02297FE010E94F40FC234D107C9F7C0
:100190000E945C0B0C94F80F0C9400000895E09101
:1001A000AE01F091AF010190F081E02D60919E01D0
:1001B0008EEA91E0099460E0809104010E949A081F
:1001C00040E060E070E086E491E00E94C10448E015
:1001D00050E060E070E086E491E00E94E60460E0B8
:1001E00070E086E491E00E94F80426E040E855E2E1
:1001F00060E070E08AE792E00E94540A2AE030E072
:1002000043EE55EB6FE473E08AE792E00E94790CCD
:1002100080EA91E00E94570665E070E08EEA91E086
:100220000E94CE026EEC70E08EEA91E00E94D00255
:100230006FEC70E08EEA91E00C94D502CF92DF92E1
:10024000EF92FF920F93CF93DF936B017C0166E0F7
:1002500071E08AE792E00E94C40B20E030E040E2C7
:1002600051E4C701B6010E94410F0E945A0EFB01E2
:10027000CAE0D0E0CB01BE010E94A80F7B01D82EBE
:10028000CF0164E670E00E94A80F262F00E044E052
:1002900050E060E070E086E491E00E94FC05C70158
:1002A000BE010E94A80F282F45E050E060E070E0FA
:1002B00086E491E00E94FC052D2D46E050E060E0D0
:1002C00070E086E491E00E94FC0523E447E050E002
:1002D00060E070E086E491E00E94260601E020E004
:1002E00030E045E050E060E070E086E491E00E949C
:1002F000BD05DF91CF910F91FF90EF90DF90CF90F0
:100300000895CF92DF92EF92FF920E94D507C0909E
:100310004201D0904301E0904401F09045016C19F6
:100320007D098E099F09C0900001D0900101E090E5
:100330000201F0900301C616D706E806F90668F533
:100340000E94D5076093420170934301809344015A
:100350009093450160E080EA91E00E9417076B01ED
:100360007C010E945A0E70939F0160939E016DE084
:1003700071E08AE792E00E94C40B22E030E0B7010E
:10038000A6018AE792E00E94760DC701B601FF90B0
:10039000EF90DF90CF900C941E01FF90EF90DF90D4
:1003A000CF9008950F931F9326E046E160910401DA
:1003B00080EA91E00E94500601E010E02AE030E07F
:1003C0004BE050E06CE070E086E491E00E942E0586
:1003D0001F910F9108958091E10190E02091E20139
:1003E000821B910908952091E2018091E101281773
:1003F00050F4E22FF0E0ED51FE4F808190E02F5F4E
:100400002093E20108958FEF9FEF0895E091E201BC
:100410008091E101E81730F4F0E0ED51FE4F80816A
:1004200090E008958FEF9FEF08950895E091BA014D
:10043000F091BB013097E1F03091E2012091E101B0
:100440003217B0F040E0242F30E02617370754F47D
:10045000DC01A20FB31F5C91D901AD51BE4F5C937B
:100460004F5FF1CF1092E2016093E101CB0109945B
:100470000895E091BC01F091BD01309729F01092F0
:10048000C0011092BF0109940895CF92DF92EF92BC
:10049000FF920F931F93CF93DF937C01CB018A01CF
:1004A0002091BE01222389F0EB016B01C40ED51E01
:1004B000CC15DD0569F06991D701ED91FC910190B2
:1004C000F081E02DC7010995F3CF642F0E9400034E
:1004D000C801DF91CF911F910F91FF90EF90DF90B6
:1004E000CF900895CF93DF931F92CDB7DEB7698386
:1004F0002091BE012223D1F02091BF01203240F093
:1005000021E030E0FC013383228380E090E015C0DD
:100510008091C001E82FF0E0EF53FE4F9981908366
:100520008F5F8093C0018093BF0105C061E0CE0161
:1005300001960E94000381E090E00F90DF91CF913F
:100540000895FC011382128248EE53E060E070E0EF
:10055000448355836683778388E191E09183808328
:1005600008951092E2011092E1011092C0011092E0
:10057000BF010C94DE02CF93DF93EC01862F0E9423
:10058000FC0289E392E00E941E0386E192E00E9451
:100590001903CE01DF91CF910C94B1020C94BB02F0
:1005A0007093BB016093BA0108957093BD0160938D
:1005B000BC0108958EEA91E00C94A10210927002A1
:1005C00081E080936E0210926D0261E082E10E94F0
:1005D000D30861E083E10E94D308E9EBF0E0808179
:1005E0008E7F808380818D7F808388E48093B800B4
:1005F00085E48093BC000895880F8093BA00089525
:10060000613298F420917002243089F460932502BD
:10061000FC0187E292E0DC012A2F281B261718F440
:1006200021912D93F9CF80E0089581E0089582E033
:10063000089590936A0280936902089590936C02E2
:1006400080936B02089585ED8093BC008091BC007F
:1006500084FDFCCF10927002089585EC8093BC005D
:100660001092700208951F920F920FB60F921124EC
:100670002F933F934F935F936F937F938F939F93AA
:10068000AF93BF93EF93FF938091B900887F80363B
:1006900009F49CC068F5883209F45BC090F480319D
:1006A00009F454C038F4882309F4F5C0883009F4FB
:1006B0004DC0F5C0883109F44CC0803209F45DC0EA
:1006C000EEC0803409F468C048F4803309F455C0A2
:1006D000883309F0E4C080930302A8C0803509F490
:1006E0004FC0883509F45DC0883409F0D8C0D5C042
:1006F000883909F4C6C0A8F4883709F467C038F40B
:10070000883609F463C0803709F460C0C8C08838EF
:1007100009F4B7C0803909F45FC0803809F0BFC060
:100720005BC0803B09F485C038F4803A09F466C0A8
:10073000883A09F47EC0B3C0803C09F4A6C0883C66
:1007400009F4A3C0883B09F489C0A9C080916F0255
:1007500010C09091480280914702981770F5E0917F
:10076000480281E08E0F80934802F0E0E75BFD4F86
:1007700080818093BB0085EC85C0809303028DC08F
:10078000E091480281E08E0F809348028091BB0087
:10079000F0E0E75BFD4F8083909148028091470233
:1007A0006DC0E091480281E08E0F809348028091F5
:1007B000BB00F0E0E75BFD4F808380916E0281110A
:1007C0006CC081E080936D0284EA60C083E0809316
:1007D000700210920402CFCF80910402803208F0A0
:1007E00050C0E091040281E08E0F8093040280915A
:1007F000BB00F0E0EB5FFD4F8083BDCF8091040232
:10080000803230F4E0910402F0E0EB5FFD4F1082A3
:100810000E9423036091040270E0E0916902F0916C
:100820006A0285E092E00995109204020E942D036D
:1008300036C084E080937002109226021092250246
:10084000E0916B02F0916C02099580912502811173
:1008500005C081E08093250210922702E0912602D4
:1008600081E08E0F80932602F0E0E95DFD4F8081EC
:100870008093BB009091260280912502981708F47E
:100880007ACF85E88093BC000AC085EC8093BC00D9
:100890001092700204C0109203020E942303FF9181
:1008A000EF91BF91AF919F918F917F916F915F91E8
:1008B0004F913F912F910F900FBE0F901F90189561
:1008C0008F929F92AF92BF92CF92DF92EF92FF9260
:1008D0000F931F93CF93DF9300D0CDB7DEB78C017A
:1008E00049832A83660F771FF801EA5AFF4FE08099
:1008F000F180EE0CFF1CF801CF01801B910B8E15CF
:100900009F0514F41192F8CF8981F801E60FF71FC3
:1009100081838A818083680184E5C80ED11C60E0F0
:10092000F60180810E94D3085801F2E5AF0EB11C98
:10093000480180E5880E911C1E141F047CF4E1E040
:10094000EE1AF108F801EE0DFF1D208141E0F501DE
:100950006081F40180810E943209EECF61E0F601EE
:1009600080810F900F90DF91CF911F910F91FF9099
:10097000EF90DF90CF90BF90AF909F908F900C94AE
:10098000D30877FD10C0FC01EA5AFF4F2081318166
:100990006217730744F4442311F020E001C021E002
:1009A0004CE00C946004089577FD0FC0FC01EA5AF6
:1009B000FF4F20813181621773073CF448305105A5
:1009C00020F4242F4BE00C946004089577FD0FC0B1
:1009D000FC01EA5AFF4F20813181621773073CF412
:1009E0004031510520F4242F4AE00C94600408950E
:1009F000CF92DF92EF92FF920F931F93CF93DF93EB
:100A00007C018B0177FD21C0FC01EA5AFF4F8081F8
:100A1000918168177907CCF46B0123E0CC0CDD1CC5
:100A20002A95E1F7C0E0D0E0CE0CDF1CF601EC0F18
:100A3000FD1F108A4C2F4F5F20E0B801C7010E94B4
:100A400060042196C830D10589F7DF91CF911F91BD
:100A50000F91FF90EF90DF90CF9008954F925F92AB
:100A60007F928F929F92AF92BF92CF92DF92EF923E
:100A7000FF920F931F93CF93DF931F92CDB7DEB7F3
:100A80002C01762E7C0180E5E80EF11CF7016083D5
:100A900071834201F2E58F0E911CF4015183408372
:100AA0006201F4E5CF0ED11CF60131832083C80129
:100AB0000197089710F008E010E05201F6E5AF0E3C
:100AC000B11CF5011183008361E0872D79830E94B9
:100AD0009A0861E0F40180810E949A0861E0F601C1
:100AE00080810E949A0861E0F60180810E94D3080B
:100AF000F70170827981718380E090E0F201E80F64
:100B0000F91F108A019680349105C1F700E010E0CA
:100B1000F5018081918108171907F4F420E04FE076
:100B2000B801C2010E94600447E050E0B801C20170
:100B30000E94D40420E049E0B801C2010E94600490
:100B4000B801C2010E94F80441E0B801C2010E944C
:100B5000C1040F5F1F4FDCCF0F90DF91CF911F912A
:100B60000F91FF90EF90DF90CF90BF90AF909F904C
:100B70008F907F905F904F9008950F93CF93DF9366
:100B800077FD36C0FC01EA5AFF4F0190F081E02D5D
:100B90006E177F076CF54830510550F52830310548
:100BA00038F5DB0133E0AA0FBB1F3A95E1F7E0E827
:100BB000F0E002C0F595E7952A95E2F7ED01C40F44
:100BC000D51FC80FD91F002319F028892E2B03C069
:100BD000E09528892E23288BFC01EA0FFB1FE40FE8
:100BE000F51F4F5F2089DF91CF910F910C94600426
:100BF000DF91CF910F9108950F9377FD25C0DC0110
:100C0000AA5ABF4F0D90BC91A02D6A177B07E4F440
:100C100048305105C8F42031B8F4DB0133E0AA0FA5
:100C2000BB1F3A95E1F7E22FF0E0E859FF4F24911E
:100C300001112068A80FB91FA40FB51F50962C935F
:100C40004F5F0F910C9460040F9108950F9377FDFF
:100C500025C0DC01AA5ABF4F0D90BC91A02D6A1788
:100C60007B07E4F448305105C8F4DB01E3E0AA0F48
:100C7000BB1FEA95E1F727FD20E2E22FF0E0E859FB
:100C8000FF4F249101112068A80FB91FA40FB51FB1
:100C900050962C934F5F0F910C9460040F91089520
:100CA000FC0166834783208781E085870895CF9381
:100CB000DF93EC0160E08E810E949A0861E08E81F2
:100CC0000E94D30819861A861B861C86DF91CF9155
:100CD0000895DF92EF92FF920F931F93CF93DF93CC
:100CE000EC010E94D50709851A852B853C85601784
:100CF00071078207930720F419861A861B861C86C3
:100D00002D85211111C009851A852B853C85DC01B3
:100D1000CB01801B910BA20BB30B803D9740A1052B
:100D2000B10510F481E07BC01D860E94D50769875C
:100D30007A878B879C871C821B821A821982188271
:100D400061E08E810E94D3086AEF70E080E090E05D
:100D50000E94040861E08E810E949A0860E08E8102
:100D60000E94D30864E170E080E090E00E940408F3
:100D7000F89461E08E810E94D30888E290E00E949E
:100D80002C0860E08E810E949A08F12CD12C81E021
:100D9000E12C082F10E08E810E940909801791072D
:100DA00041F4E39481E090E00E942C088FEFE81278
:100DB000F2CF8E810E9409099FEFE916C9F023E066
:100DC0002F1590F4F0FC10C09D2D96959695969554
:100DD000FE01E90FF11D9081990F908328852E1552
:100DE00010F491609083D394F39495E5F912D0CFE9
:100DF000789427E22D1590F42C8130E04881898188
:100E000090E0840F911D4A81840F911D4B81840FC6
:100E1000911D99272817390709F484CF80E0DF91C5
:100E2000CF911F910F91FF90EF90DF900895CF9297
:100E3000DF92EF92FF920F931F93CF93DF93EC011A
:100E4000162F0E946906882309F450C08F818B30C9
:100E500031F008F44BC08551823078F047C06A8188
:100E600070E080E090E00E948B0E112309F443C0F3
:100E700020E030E040E151E42AC00A81602F6F7722
:100E800070E080E090E00E948D0E20E030E040E8CD
:100E900053E40E94410F6B017C016B8170E080E0A4
:100EA00090E00E948D0E9B01AC01C701B6010E942B
:100EB0008A0D20E030E040E251E40E94F20D07FD8F
:100EC00090581123D9F020E030E040E151E40E9435
:100ED000410F20E030E040EA50E40E94F20D20E0B3
:100EE00030E040E052E40E948A0D08C020E030E08B
:100EF00040EC5FE705C09B01AC0102C09B01AC0167
:100F0000B901CA01DF91CF911F910F91FF90EF902E
:100F1000DF90CF9008951F920F920FB60F92112479
:100F20002F933F938F939F93AF93BF9380917202C0
:100F300090917302A0917402B09175023091710288
:100F400023E0230F2D3720F40196A11DB11D05C00C
:100F500026E8230F0296A11DB11D209371028093F4
:100F6000720290937302A0937402B0937502809101
:100F7000760290917702A0917802B0917902019661
:100F8000A11DB11D8093760290937702A093780201
:100F9000B0937902BF91AF919F918F913F912F9123
:100FA0000F900FBE0F901F9018952FB7F894609177
:100FB00072027091730280917402909175022FBF3A
:100FC00008953FB7F8948091760290917702A091AE
:100FD0007802B091790226B5A89B05C02F3F19F081
:100FE0000196A11DB11D3FBF6627782F892F9A2F2B
:100FF000620F711D811D911D42E0660F771F881FD2
:10100000991F4A95D1F70895CF92DF92EF92FF9200
:10101000CF93DF936B017C010E94E107EB01C114C8
:10102000D104E104F10489F00E94880D0E94E107D7
:101030006C1B7D0B683E734090F381E0C81AD108A9
:10104000E108F108C851DC4FEACFDF91CF91FF9062
:10105000EF90DF90CF900895019739F0880F991F96
:10106000880F991F02970197F1F70895789484B536
:10107000826084BD84B5816084BD85B5826085BD94
:1010800085B5816085BDEEE6F0E08081816080837A
:10109000E1E8F0E01082808182608083808181605D
:1010A0008083E0E8F0E0808181608083E1EBF0E024
:1010B000808184608083E0EBF0E0808181608083C8
:1010C000EAE7F0E0808184608083808182608083B1
:1010D0008081816080838081806880831092C100DC
:1010E0000895833081F028F4813099F08230A1F0A6
:1010F00008958730A9F08830B9F08430D1F4809118
:1011000080008F7D03C0809180008F778093800066
:10111000089584B58F7702C084B58F7D84BD08950E
:101120008091B0008F7703C08091B0008F7D809355
:10113000B0000895CF93DF9390E0FC01E450FF4F9F
:101140002491FC01E05FFE4F8491882349F190E0F7
:10115000880F991FFC01E85CFE4FA591B491825D58
:101160009E4FFC01C591D4919FB7611108C0F894BE
:101170008C91209582238C93888182230AC06230CF
:1011800051F4F8948C91322F309583238C9388817D
:10119000822B888304C0F8948C91822B8C939FBF00
:1011A000DF91CF9108950F931F93CF93DF931F92F9
:1011B000CDB7DEB7282F30E0F901E851FF4F849119
:1011C000F901E450FF4F1491F901E05FFE4F0491E3
:1011D0000023C9F0882321F069830E947108698186
:1011E000E02FF0E0EE0FFF1FE25DFE4FA591B491FE
:1011F0009FB7F8948C91611103C01095812301C0B1
:10120000812B8C939FBF0F90DF91CF911F910F91F6
:101210000895CF93DF93282F30E0F901E851FF4F75
:101220008491F901E450FF4FD491F901E05FFE4F42
:10123000C491CC2391F081110E947108EC2FF0E051
:10124000EE0FFF1FEC5DFE4FA591B4912C912D2365
:1012500081E090E021F480E002C080E090E0DF9146
:10126000CF910895BF92CF92DF92EF92FF920F93AA
:101270001F93CF93DF93C82ED62EB42EC7E0D0E0B5
:10128000022F10E087E0E82EF12CB1100AC0F70120
:10129000EC1BFD0BB80102C075956795EA95E2F766
:1012A00007C0B8010C2E02C0759567950A94E2F745
:1012B000617077278C2D0E94D30861E08D2D0E94EC
:1012C000D30860E08D2D0E94D3082197F0F6DF91BE
:1012D000CF911F910F91FF90EF90DF90CF90BF9033
:1012E0000895FC01818D228D90E0805C9F4F821BD0
:1012F00091098F7399270895FC01918D828D98171C
:1013000031F0828DE80FF11D858D90E008958FEF0B
:101310009FEF0895FC01918D828D981761F0828D69
:10132000DF01A80FB11D5D968C91928D9F5F9F7319
:10133000928F90E008958FEF9FEF08958EE09BE0ED
:10134000892B49F080E090E0892B29F00E940E0B58
:1013500081110C9400000895FC01848DDF01A80F19
:10136000B11DA35ABF4F2C91848D90E001968F73CD
:101370009927848FA689B7892C93A089B1898C91EC
:1013800080648C93938D848D981306C00288F389B2
:10139000E02D80818F7D80830895CF93DF93EC01D2
:1013A000888D8823C9F0EA89FB89808185FD05C085
:1013B000A889B9898C9186FD0FC00FB607FCF5CFBF
:1013C000808185FFF2CFA889B9898C9185FFEDCF07
:1013D000CE010E94AC09E7CFDF91CF910895CF9263
:1013E000DF92FF920F931F93CF93DF931F92CDB79E
:1013F000DEB76C01DC015B969C915B975C968C91EF
:101400005C97981307C05096ED91FC91519780819D
:1014100085FD32C0F601038D10E00F5F1F4F0F7383
:101420001127F02EF601848DF81211C00FB607FCBB
:10143000F9CFD6015096ED91FC915197808185FFAF
:10144000F1CFC60169830E94AC096981EBCF838D1E
:10145000E80FF11DE35AFF4F6083D6015B960C93B2
:101460005B975296ED91FC915397808180628083C7
:1014700081E058968C930DC0D6015696ED91FC9163
:10148000579760835096ED91FC91519780818064CD
:10149000808381E090E00F90DF91CF911F910F91B9
:1014A000FF90DF90CF900895BF92CF92DF92EF929E
:1014B000FF92CF93DF93EC016A017B01B22EE889A2
:1014C000F98982E08083411581EE58076105710535
:1014D000A1F060E079E08DE390E0A70196010E9421
:1014E000BC0F21503109410951095695479537954F
:1014F0002795211580E1380798F0E889F98910824D
:1015000060E874E88EE190E0A70196010E94BC0FAC
:10151000215031094109510956954795379527952D
:10152000EC85FD853083EE85FF852083188EEC8960
:10153000FD89B082EA89FB89808180618083EA89A4
:10154000FB89808188608083EA89FB89808180684B
:101550008083EA89FB8980818F7D8083DF91CF91B1
:10156000FF90EF90DF90CF90BF9008951F920F9261
:101570000FB60F9211242F938F939F93EF93FF93A6
:10158000E0918A02F0918B028081E0919002F091CB
:10159000910282FD12C09081809193028F5F8F73C0
:1015A00020919402821751F0E0919302F0E0E65806
:1015B000FD4F958F8093930201C08081FF91EF9141
:1015C0009F918F912F910F900FBE0F901F901895A4
:1015D0001F920F920FB60F9211242F933F934F93A8
:1015E0005F936F937F938F939F93AF93BF93EF938B
:1015F000FF938AE792E00E94AC09FF91EF91BF91BF
:10160000AF919F918F917F916F915F914F913F919A
:101610002F910F900FBE0F901F9018958AE792E0C0
:101620000E94710921E0892B09F420E0822F08959E
:1016300010927D0210927C0288EE93E0A0E0B0E070
:1016400080937E0290937F02A0938002B0938102E8
:1016500088E291E090937B0280937A0285EC90E09F
:10166000909387028093860284EC90E090938902A5
:101670008093880280EC90E090938B0280938A02A2
:1016800081EC90E090938D0280938C0282EC90E04C
:1016900090938F0280938E0286EC90E0909391025B
:1016A00080939002109293021092940210929502ED
:1016B00010929602089508950E9436080E945B0BCE
:1016C0000E94DB00CEE9D9E00E9481012097E1F37E
:1016D0000E949E09F9CFCF92DF92EF92FF920F9373
:1016E0001F93CF93DF936C017A01EB01E60EF71E97
:1016F00000E010E0CE15DF0561F06991D601ED91B3
:10170000FC910190F081E02DC6010995080F191F89
:10171000F1CFC801DF91CF911F910F91FF90EF9012
:10172000DF90CF9008956115710581F0DB010D9078
:101730000020E9F7AD0141505109461B570BDC0170
:10174000ED91FC910280F381E02D099480E090E01E
:101750000895DC01ED91FC910190F081E02D099458
:101760000F931F93CF93DF93EC016DE00E94A90BC1
:101770008C016AE0CE010E94A90B800F911FDF91BE
:10178000CF911F910F9108950F931F93CF93DF93E4
:10179000EC010E94930B8C01CE010E94B00B800FD4
:1017A000911FDF91CF911F910F9108958F929F927A
:1017B000AF92BF92CF92DF92EF92FF920F931F935F
:1017C000CF93DF93CDB7DEB7A1970FB6F894DEBF06
:1017D0000FBECDBF7C01C42EE52FCB01D22E19A2A6
:1017E00021E02D1510F02AE0D22E8E010F5D1F4F43
:1017F0008D2C912CA12CB12C6C2D7E2FA501940148
:101800000E94BC0F8C2DD29E801911240150110909
:101810008A3014F4805D01C0895CF8018083211551
:1018200031054105510521F0C22EE32FCA01E4CF55
:10183000B801C7010E94930BA1960FB6F894DEBFC2
:101840000FBECDBFDF91CF911F910F91FF90EF9011
:10185000DF90CF90BF90AF909F908F900895CF92E0
:10186000DF92EF92FF920F931F93CF93DF93EC01E0
:101870006A017B012115310579F4E881F981019034
:10188000F081E02D642FDF91CF911F910F91FF9098
:10189000EF90DF90CF9009942A303105E9F477FF7B
:1018A0001AC06DE20E94A90B8C0144275527BA018A
:1018B0004C195D096E097F092AE0CE010E94D60B02
:1018C000800F911FDF91CF911F910F91FF90EF90AB
:1018D000DF90CF9008952AE0B701A601CE01DF91F5
:1018E000CF911F910F91FF90EF90DF90CF900C94CC
:1018F000D60B0F931F93CF93DF93EC010E942F0C15
:101900008C01CE010E94B00B800F911FDF91CF910F
:101910001F910F9108954F925F926F927F928F92D5
:101920009F92AF92BF92CF92DF92EF92FF920F936E
:101930001F93CF93DF93EC016A017B01B22E9A01D2
:10194000AB01C701B6010E94A40F882319F064E31C
:1019500071E027C026013701E89477F82FEF3FEFB9
:101960004FE75FE7C301B2010E94A40F81110DC0D0
:101970002FEF3FEF4FE75FE7C301B2010E94EE0D8B
:1019800018161CF468E371E00CC02FEF3FEF4FE72F
:101990005FE4C701B6010E943D0F1816ACF46CE37A
:1019A00071E0CE01DF91CF911F910F91FF90EF90E9
:1019B000DF90CF90BF90AF909F908F907F906F906F
:1019C0005F904F900C94930B2FEF3FEF4FE75FEC3E
:1019D000C701B6010E94EE0D87FDE1CF20E030E0A7
:1019E000A901C701B6010E94EE0D87FF0AC06DE292
:1019F000CE010E94A90B8C01F7FAF094F7F8F0944D
:101A000002C000E010E0A12C60E070E080E09FE305
:101A1000AB1441F020E030E040E251E40E94F20DCE
:101A2000A394F6CF9B01AC01C701B6010E948A0DB9
:101A30006B017C010E945F0E2B013C010E948B0E0A
:101A40009B01AC01C701B6010E94890D6B017C01AD
:101A50002AE0B301A201CE010E94D60B080F191F84
:101A6000BB2039F060E471E0CE010E94930B080FB7
:101A7000191F7B2C772041F120E030E040E251E457
:101A8000C701B6010E94410F6B017C010E945A0EF2
:101A90004B01AA2497FCA094BA2C2AE030E0B501AF
:101AA000A401CE010E942F0C080F191FC501B4011B
:101AB0000E948D0E9B01AC01C701B6010E94890DE9
:101AC0006B017C017A94D6CFC801DF91CF911F9131
:101AD0000F91FF90EF90DF90CF90BF90AF909F90CD
:101AE0008F907F906F905F904F9008950F931F930A
:101AF000CF93DF93EC010E948B0C8C01CE010E94EE
:101B0000B00B800F911FDF91CF911F910F9108951E
:101B100008955058BB27AA270ED075C166D130F062
:101B20006BD120F031F49F3F11F41EF45BC10EF431
:101B3000E095E7FB51C1E92F77D180F3BA1762072F
:101B400073078407950718F071F49EF58FC10EF4A2
:101B5000E0950B2EBA2FA02D0B01B90190010C01BD
:101B6000CA01A0011124FF27591B99F0593F50F4D5
:101B7000503E68F11A16F040A22F232F342F44272D
:101B8000585FF3CF469537952795A795F040539525
:101B9000C9F77EF41F16BA0B620B730B840BBAF0F5
:101BA0009150A1F0FF0FBB1F661F771F881FC2F760
:101BB0000EC0BA0F621F731F841F48F48795779574
:101BC0006795B795F7959E3F08F0B3CF9395880F2B
:101BD00008F09927EE0F979587950895D9D008F4C6
:101BE00081E008950CD00FC107D140F0FED030F055
:101BF00021F45F3F19F0F0C0511139C1F3C014D185
:101C000098F39923C9F35523B1F3951B550BBB27C3
:101C1000AA2762177307840738F09F5F5F4F220F70
:101C2000331F441FAA1FA9F333D00E2E3AF0E0E869
:101C300030D091505040E695001CCAF729D0FE2FB5
:101C400027D0660F771F881FBB1F26173707480747
:101C5000AB07B0E809F0BB0B802DBF01FF279358FD
:101C60005F4F2AF09E3F510568F0B6C000C15F3F4C
:101C7000ECF3983EDCF3869577956795B795F795E5
:101C80009F5FC9F7880F911D9695879597F90895DD
:101C9000E1E0660F771F881FBB1F62177307840779
:101CA000BA0720F0621B730B840BBA0BEE1F88F788
:101CB000E095089504D06894B111D9C00895BCD0BE
:101CC00088F09F5790F0B92F9927B751A0F0D1F025
:101CD000660F771F881F991F1AF0BA95C9F712C0AF
:101CE000B13081F0C3D0B1E00895C0C0672F782F24
:101CF0008827B85F39F0B93FCCF38695779567951B
:101D0000B395D9F73EF490958095709561957F4F86
:101D10008F4F9F4F0895E89409C097FB3EF490952C
:101D20008095709561957F4F8F4F9F4F9923A9F0B4
:101D3000F92F96E9BB279395F69587957795679543
:101D4000B795F111F8CFFAF4BB0F11F460FF1BC087
:101D50006F5F7F4F8F4F9F4F16C0882311F096E91A
:101D600011C0772321F09EE8872F762F05C06623C8
:101D700071F096E8862F70E060E02AF09A95660F81
:101D8000771F881FDAF7880F9695879597F908953A
:101D9000990F0008550FAA0BE0E8FEEF161617067C
:101DA000E807F907C0F012161306E407F50798F0E4
:101DB000621B730B840B950B39F40A2661F0232BFD
:101DC000242B252B21F408950A2609F4A140A69579
:101DD0008FEF811D811D089597F99F6780E870E05E
:101DE00060E008959FEF80EC089500240A94161691
:101DF000170618060906089500240A9412161306F9
:101E0000140605060895092E0394000C11F4882386
:101E100052F0BB0F40F4BF2B11F460FF04C06F5FA2
:101E20007F4F8F4F9F4F089557FD9058440F551F78
:101E300059F05F3F71F04795880F97FB991F61F04C
:101E40009F3F79F087950895121613061406551FC3
:101E5000F2CF4695F1DF08C0161617061806991F2F
:101E6000F1CF86957105610508940895E894BB2724
:101E700066277727CB0197F908958ADF08F48FEF5B
:101E800008950BD0C0CFB1DF28F0B6DF18F095234E
:101E900009F0A2CFA7CF1124EACFC6DFA0F3959F08
:101EA000D1F3950F50E0551F629FF001729FBB2741
:101EB000F00DB11D639FAA27F00DB11DAA1F649FED
:101EC0006627B00DA11D661F829F2227B00DA11DA0
:101ED000621F739FB00DA11D621F839FA00D611D26
:101EE000221F749F3327A00D611D231F849F600D47
:101EF000211D822F762F6A2F11249F5750408AF080
:101F0000E1F088234AF0EE0FFF1FBB1F661F771F0B
:101F1000881F91505040A9F79E3F510570F05CCF4B
:101F2000A6CF5F3FECF3983EDCF3869577956795F7
:101F3000B795F795E7959F5FC1F7FE2B880F911D29
:101F40009695879597F9089523DF880B990B089547
:101F500097FB072E16F4009407D077FD09D00E9456
:101F6000DE0F07FC05D03EF4909581959F4F0895B4
:101F7000709561957F4F0895A1E21A2EAA1BBB1B95
:101F8000FD010DC0AA1FBB1FEE1FFF1FA217B30745
:101F9000E407F50720F0A21BB30BE40BF50B661F5B
:101FA000771F881F991F1A9469F76095709580951F
:101FB00090959B01AC01BD01CF010895AA1BBB1BED
:101FC00051E107C0AA1FBB1FA617B70710F0A61B39
:101FD000B70B881F991F5A95A9F780959095BC015A
:101FE000CD010895EE0FFF1F0590F491E02D0994A7
:041FF000F894FFCF93
:101FF40010270000090073657673656700757064C7
:10200400617465000000000072024502EB01F301F7
:102014000602150200000000EF096B0B71098A0922
:102024007C09CD096E616E00696E66006F7666008C
:022034002E007C
:00000001FF
