:100000000C945E000C9486000C9486000C94860080
:100010000C9486000C9486000C9486000C94860048
:100020000C9486000C9486000C9486000C94860038
:100030000C9486000C9486000C9486000C94860028
:100040000C9426030C9486000C94D3050C9405069E
:100050000C9486000C9486000C9486000C94860008
:100060000C94F9010C9486000000000800020100C5
:100070000003040700000000000000000102040863
:100080001020408001020408102001020408102002
:10009000040404040404040402020202020203032E
:1000A0000303030300000000250028002B000000CC
:1000B0000000240027002A006A01350611241FBE13
:1000C000CFEFD8E0DEBFCDBF11E0A0E0B1E0E2E1CC
:1000D000FFE002C005900D92A032B107D9F722E0EF
:1000E000A0E2B1E001C01D92A538B207E1F710E02F
:1000F000CCEBD0E004C02297FE010E948307C83BEE
:10010000D107C9F70E9479060C9487070C94000068
:1001100061E083E00E941F0426E040E855E260E0D1
:1001200070E088EE91E00E94710580E291E00C940D
:10013000500141E050E065E070E080E291E00E9413
:10014000670180E291E00E94B900892B61F080E2B2
:1001500091E00E94C1004AE050E0682F88EE91E0F3
:100160000E944707EECF60ED77E080E090E00C94CE
:10017000930380914F0190E020915001821B9109DF
:1001800008952091500180914F01281750F4E22FDB
:10019000F0E0EF5AFE4F808190E02F5F20935001F6
:1001A00008958FEF9FEF0895E091500180914F01E6
:1001B000E81730F4F0E0EF5AFE4F808190E00895A8
:1001C0008FEF9FEF08950895CF92DF92EF92FF9205
:1001D0000F931F93CF93DF937C01CB018A01209172
:1001E0002C01222389F0EB016B01C40ED51ECC1526
:1001F000DD0569F06991D701ED91FC910190F081E5
:10020000E02DC7010995F3CF642F0E94D001C801EA
:10021000DF91CF911F910F91FF90EF90DF90CF90E2
:100220000895CF93DF931F92CDB7DEB769832091F6
:100230002C012223D1F020912D01203240F021E029
:1002400030E0FC013383228380E090E015C0809190
:100250002E01E82FF0E0E15DFE4F998190838F5FE2
:1002600080932E0180932D0105C061E0CE0101969F
:100270000E94D00181E090E00F90DF91CF9108952E
:10028000FC011382128248EE53E060E070E0448388
:1002900055836683778384E091E09183808308951A
:1002A0001092500110924F0110922E0110922D01C8
:1002B0000C946E01862F413208F040E261E571E056
:1002C0000E948C011092500180934F01089521E00B
:1002D0000C945A0180E291E00C9440011092DE01EE
:1002E00081E08093DC011092DB0161E082E10E94F9
:1002F000580461E083E10E945804E9EBF0E080815A
:100300008E7F808380818D7F808388E48093B80096
:1003100085E48093BC000895413208F03FC090917D
:10032000DE019111FCCF91E09093DE012093DC017E
:100330002FEF209371011092B601240F2093B50185
:100340009093DD019091DD01880F892B8093DD0171
:100350008091DB01813041F41092DB018091DD015D
:100360008093BB0085EC01C085EE8093BC0080913A
:10037000DE018130E1F38091B601841710F44091E1
:10038000B60127EB31E0FB01D9018A2F821B8417CC
:1003900018F48D918193F9CF842F089580E008950A
:1003A000613298F42091DE01243089F46093930146
:1003B000FC0185E991E0DC012A2F281B261718F49F
:1003C00021912D93F9CF80E0089581E0089582E096
:1003D000089585ED8093BC008091BC0084FDFCCF26
:1003E0001092DE01089585EC8093BC001092DE012E
:1003F00008951F920F920FB60F9211242F933F93DF
:100400004F935F936F937F938F939F93AF93BF931C
:10041000EF93FF938091B900887F803609F49CC0E8
:1004200068F5883209F45BC090F4803109F454C057
:1004300038F4882309F4F5C0883009F44DC0F5C0BC
:10044000883109F44CC0803209F45DC0EEC08034BC
:1004500009F468C048F4803309F455C0883309F0C2
:10046000E4C080937101A8C0803509F44FC088357D
:1004700009F45DC0883409F0D8C0D5C0883909F4C2
:10048000C6C0A8F4883709F467C038F4883609F480
:1004900063C0803709F460C0C8C0883809F4B7C0A9
:1004A000803909F45FC0803809F0BFC05BC0803B71
:1004B00009F485C038F4803A09F466C0883A09F432
:1004C0007EC0B3C0803C09F4A6C0883C09F4A3C038
:1004D000883B09F489C0A9C08091DD0110C09091CA
:1004E000B6018091B501981770F5E091B60181E0F1
:1004F0008E0F8093B601F0E0E954FE4F8081809327
:10050000BB0085EC85C0809371018DC0E091B60180
:1005100081E08E0F8093B6018091BB00F0E0E9543A
:10052000FE4F80839091B6018091B5016DC0E0913E
:10053000B60181E08E0F8093B6018091BB00F0E0A0
:10054000E954FE4F80838091DC0181116CC081E011
:100550008093DB0184EA60C083E08093DE01109227
:100560007201CFCF80917201803208F050C0E091CB
:10057000720181E08E0F809372018091BB00F0E0E8
:10058000ED58FE4F8083BDCF80917201803230F4F0
:10059000E0917201F0E0ED58FE4F10820E94E901F7
:1005A0006091720170E0E091D701F091D80183E78A
:1005B00091E00995109272010E94F30136C084E027
:1005C0008093DE011092940110929301E091D90181
:1005D000F091DA01099580919301811105C081E0C4
:1005E0008093930110929501E091940181E08E0F28
:1005F00080939401F0E0EB56FE4F80818093BB0026
:100600009091940180919301981708F47ACF85E82E
:100610008093BC000AC085EC8093BC001092DE0180
:1006200004C0109271010E94E901FF91EF91BF9106
:10063000AF919F918F917F916F915F914F913F917A
:100640002F910F900FBE0F901F9018951F920F9231
:100650000FB60F9211242F933F938F939F93AF93D5
:10066000BF938091E0019091E101A091E201B091EE
:10067000E3013091DF0123E0230F2D3720F40196B1
:10068000A11DB11D05C026E8230F0296A11DB11DB5
:100690002093DF018093E0019093E101A093E201B8
:1006A000B093E3018091E4019091E501A091E6010E
:1006B000B091E7010196A11DB11D8093E4019093D3
:1006C000E501A093E601B093E701BF91AF919F913F
:1006D0008F913F912F910F900FBE0F901F90189503
:1006E0003FB7F8948091E4019091E501A091E60173
:1006F000B091E70126B5A89B05C02F3F19F00196E0
:10070000A11DB11D3FBF6627782F892F9A2F620F39
:10071000711D811D911D42E0660F771F881F991F73
:100720004A95D1F70895CF92DF92EF92FF92CF933F
:10073000DF936B017C010E947003EB01C114D104B3
:10074000E104F10489F00E945E070E9470036C1BB3
:100750007D0B683E734090F381E0C81AD108E10830
:10076000F108C851DC4FEACFDF91CF91FF90EF90B5
:10077000DF90CF900895789484B5826084BD84B56D
:10078000816084BD85B5826085BD85B5816085BD8C
:10079000EEE6F0E0808181608083E1E8F0E01082A5
:1007A000808182608083808181608083E0E8F0E0E6
:1007B000808181608083E1EBF0E0808184608083D0
:1007C000E0EBF0E0808181608083EAE7F0E0808107
:1007D0008460808380818260808380818160808367
:1007E0008081806880831092C1000895833081F0F9
:1007F00028F4813099F08230A1F008958730A9F073
:100800008830B9F08430D1F4809180008F7D03C0AE
:10081000809180008F7780938000089584B58F77D2
:1008200002C084B58F7D84BD08958091B0008F771C
:1008300003C08091B0008F7D8093B0000895CF9366
:10084000DF9390E0FC01E458FF4F2491FC01E05756
:10085000FF4F8491882349F190E0880F991FFC0194
:10086000E255FF4FA591B4918C559F4FFC01C59166
:10087000D4919FB7611108C0F8948C912095822380
:100880008C93888182230AC0623051F4F8948C9151
:10089000322F309583238C938881822B888304C0E8
:1008A000F8948C91822B8C939FBFDF91CF91089508
:1008B0000F931F93CF93DF931F92CDB7DEB7282FEF
:1008C00030E0F901E859FF4F8491F901E458FF4FF6
:1008D0001491F901E057FF4F04910023C9F08823D8
:1008E00021F069830E94F6036981E02FF0E0EE0FAA
:1008F000FF1FEC55FF4FA591B4919FB7F8948C91D1
:10090000611103C01095812301C0812B8C939FBF7F
:100910000F90DF91CF911F910F910895FC01818D70
:10092000228D90E0805C9F4F821B91098F739927E5
:100930000895FC01918D828D981731F0828DE80F1A
:10094000F11D858D90E008958FEF9FEF0895FC01D4
:10095000918D828D981761F0828DDF01A80FB11DF6
:100960005D968C91928D9F5F9F73928F90E008951A
:100970008FEF9FEF08958BE296E0892B49F080E09E
:1009800090E0892B29F00E942B0681110C94000025
:100990000895FC01848DDF01A80FB11DA35ABF4F3C
:1009A0002C91848D90E001968F739927848FA6896E
:1009B000B7892C93A089B1898C9180648C93938D95
:1009C000848D981306C00288F389E02D80818F7D85
:1009D00080830895CF93DF93EC01888D8823C9F03D
:1009E000EA89FB89808185FD05C0A889B9898C9138
:1009F00086FD0FC00FB607FCF5CF808185FFF2CFD3
:100A0000A889B9898C9185FFEDCFCE010E94C904D8
:100A1000E7CFDF91CF910895CF92DF92FF920F93AE
:100A20001F93CF93DF931F92CDB7DEB76C01DC012C
:100A30005B969C915B975C968C915C97981307C032
:100A40005096ED91FC915197808185FD32C0F60161
:100A5000038D10E00F5F1F4F0F731127F02EF6016B
:100A6000848DF81211C00FB607FCF9CFD60150964D
:100A7000ED91FC915197808185FFF1CFC60169838B
:100A80000E94C9046981EBCF838DE80FF11DE35A01
:100A9000FF4F6083D6015B960C935B975296ED9166
:100AA000FC91539780818062808381E058968C937B
:100AB0000DC0D6015696ED91FC91579760835096E4
:100AC000ED91FC91519780818064808381E090E07A
:100AD0000F90DF91CF911F910F91FF90DF90CF90FA
:100AE0000895BF92CF92DF92EF92FF92CF93DF9360
:100AF000EC016A017B01B22EE889F98982E08083EA
:100B0000411581EE580761057105A1F060E079E0BB
:100B10008DE390E0A70196010E945F072150310903
:100B2000410951095695479537952795211580E13B
:100B3000380798F0E889F989108260E874E88EE156
:100B400090E0A70196010E945F07215031094109F9
:100B500051095695479537952795EC85FD85308346
:100B6000EE85FF852083188EEC89FD89B082EA89A5
:100B7000FB89808180618083EA89FB89808188602C
:100B80008083EA89FB89808180688083EA89FB8988
:100B900080818F7D8083DF91CF91FF90EF90DF90F8
:100BA000CF90BF9008951F920F920FB60F9211240D
:100BB0002F938F939F93EF93FF93E091F801F09120
:100BC000F9018081E091FE01F091FF0182FD12C0E8
:100BD0009081809101028F5F8F73209102028217B2
:100BE00051F0E0910102F0E0E851FE4F958F8093C3
:100BF000010201C08081FF91EF919F918F912F9110
:100C00000F900FBE0F901F9018951F920F920FB666
:100C10000F9211242F933F934F935F936F937F9382
:100C20008F939F93AF93BF93EF93FF9388EE91E0E1
:100C30000E94C904FF91EF91BF91AF919F918F9155
:100C40007F916F915F914F913F912F910F900FBEC8
:100C50000F901F90189588EE91E00E948E0421E07D
:100C6000892B09F420E0822F08951092EB01109255
:100C7000EA0188EE93E0A0E0B0E08093EC0190936D
:100C8000ED01A093EE01B093EF0184E191E0909328
:100C9000E9018093E80185EC90E09093F501809361
:100CA000F40184EC90E09093F7018093F60180ECDE
:100CB00090E09093F9018093F80181EC90E090939B
:100CC000FB018093FA0182EC90E09093FD01809308
:100CD000FC0186EC90E09093FF018093FE0110925E
:100CE000010210920202109203021092040208956F
:100CF00008950E94BB030E9478060E948800CBEBF7
:100D0000D4E00E9499002097E1F30E94BB04F9CF40
:100D1000CF92DF92EF92FF920F931F93CF93DF93C7
:100D20006C017A01EB01E60EF71E00E010E0CE1533
:100D3000DF0561F06991D601ED91FC910190F081A0
:100D4000E02DC6010995080F191FF1CFC801DF91E9
:100D5000CF911F910F91FF90EF90DF90CF9008956A
:100D60006115710581F0DB010D900020E9F7AD01FF
:100D700041505109461B570BDC01ED91FC9102805B
:100D8000F381E02D099480E090E00895DC01ED917D
:100D9000FC910190F081E02D09940F931F93CF9364
:100DA000DF93EC016DE00E94C6068C016AE0CE0183
:100DB0000E94C606800F911FDF91CF911F910F9166
:100DC00008958F929F92AF92BF92CF92DF92EF924F
:100DD000FF920F931F93CF93DF93CDB7DEB7A19709
:100DE0000FB6F894DEBF0FBECDBF7C01C42EE52F39
:100DF000CB01D22E19A221E02D1510F02AE0D22E1F
:100E00008E010F5D1F4F8D2C912CA12CB12C6C2DC0
:100E10007E2FA50194010E945F078C2DD29E801920
:100E20001124015011098A3014F4805D01C0895CDD
:100E3000F8018083211531054105510521F0C22EAD
:100E4000E32FCA01E4CFB801C7010E94B006A19602
:100E50000FB6F894DEBF0FBECDBFDF91CF911F91CB
:100E60000F91FF90EF90DF90CF90BF90AF909F9049
:100E70008F9008952115310541F4DC01ED91FC912D
:100E80000190F081E02D642F09940C94E1060F93FA
:100E90001F93CF93DF93EC019A01462F50E060E05F
:100EA00070E00E943A078C01CE010E94CD06800FAF
:100EB000911FDF91CF911F910F9108950895A1E2A5
:100EC0001A2EAA1BBB1BFD010DC0AA1FBB1FEE1FC4
:100ED000FF1FA217B307E407F50720F0A21BB30B0F
:100EE000E40BF50B661F771F881F991F1A9469F78B
:100EF00060957095809590959B01AC01BD01CF01E7
:100F00000895EE0FFF1F0590F491E02D0994F894D9
:020F1000FFCF11
:100F1200000000001101E400B900C100D400E300A8
:100F2200000000000C0588068E04A7049904EA0458
:00000001FF
